{
  "address": "0x55cbF8284EDCd412bbac595b33Be1Ecdd04a79B7",
  "abi": [
    {
      "inputs": [],
      "name": "FundingVaultFactory__CannotBeAZeroAddress",
      "type": "error"
    },
    {
      "inputs": [],
      "name": "FundingVaultFactory__MinFundingAmountCanNotBeZero",
      "type": "error"
    },
    {
      "inputs": [],
      "name": "FundingVaultFactory__deadlineCannotBeInThePast",
      "type": "error"
    },
    {
      "inputs": [],
      "name": "FundingVault__TokenTransferFailed",
      "type": "error"
    },
    {
      "anonymous": false,
      "inputs": [
        {
          "indexed": true,
          "internalType": "address",
          "name": "fundingVault",
          "type": "address"
        }
      ],
      "name": "FundingVaultDeployed",
      "type": "event"
    },
    {
      "anonymous": false,
      "inputs": [
        {
          "indexed": true,
          "internalType": "address",
          "name": "token",
          "type": "address"
        },
        {
          "indexed": true,
          "internalType": "address",
          "name": "recepient",
          "type": "address"
        },
        {
          "indexed": false,
          "internalType": "uint256",
          "name": "amount",
          "type": "uint256"
        }
      ],
      "name": "TransferTokens",
      "type": "event"
    },
    {
      "inputs": [
        {
          "internalType": "address",
          "name": "_participationToken",
          "type": "address"
        },
        {
          "internalType": "uint256",
          "name": "_participationTokenAmount",
          "type": "uint256"
        },
        {
          "internalType": "uint256",
          "name": "_minFundingAmount",
          "type": "uint256"
        },
        {
          "internalType": "uint256",
          "name": "_blockLimit",
          "type": "uint256"
        },
        {
          "internalType": "uint256",
          "name": "_exchangeRate",
          "type": "uint256"
        },
        {
          "internalType": "address",
          "name": "_withdrawlAddress",
          "type": "address"
        },
        {
          "internalType": "address",
          "name": "_developerFeeAddress",
          "type": "address"
        },
        {
          "internalType": "uint256",
          "name": "_developerFeePercentage",
          "type": "uint256"
        },
        {
          "internalType": "string",
          "name": "_projectURL",
          "type": "string"
        }
      ],
      "name": "deployFundingVault",
      "outputs": [
        {
          "internalType": "address",
          "name": "",
          "type": "address"
        }
      ],
      "stateMutability": "nonpayable",
      "type": "function"
    },
    {
      "inputs": [
        {
          "internalType": "uint256",
          "name": "_fundingVaultId",
          "type": "uint256"
        }
      ],
      "name": "getFundingVault",
      "outputs": [
        {
          "internalType": "address",
          "name": "",
          "type": "address"
        }
      ],
      "stateMutability": "view",
      "type": "function"
    },
    {
      "inputs": [],
      "name": "getTotalNumberOfFundingVaults",
      "outputs": [
        {
          "internalType": "uint256",
          "name": "",
          "type": "uint256"
        }
      ],
      "stateMutability": "view",
      "type": "function"
    }
  ],
  "transactionHash": "0x34e99e94f8696e60c467f029d3578eff4800659b9878878f55cf462df80f0e2b",
  "args": [],
  "numDeployments": 1,
  "solcInputHash": "c846434d5d8ebca6b27219a5333d41f5",
  "bytecode": "0x608060405234801561001057600080fd5b506112eb806100206000396000f3fe608060405234801561001057600080fd5b50600436106100415760003560e01c8063a0671d9014610046578063b6c10e811461008c578063f24552be1461009f575b600080fd5b61006f6100543660046102fa565b6000908152600260205260409020546001600160a01b031690565b6040516001600160a01b0390911681526020015b60405180910390f35b61006f61009a366004610345565b6100b0565b600154604051908152602001610083565b60006001600160a01b038a1615806100cf57506001600160a01b038516155b806100e157506001600160a01b038416155b156100ff57604051636413ca5b60e11b815260040160405180910390fd5b864311156101205760405163c25fb0d560e01b815260040160405180910390fd5b87600003610141576040516377a4d60160e01b815260040160405180910390fd5b6001805490600061015183610459565b9091555050600154600080546001600160a01b0319166001600160a01b038d161781556040518c908c908c908c908c908c908c908c908c90610192906102ed565b6101a499989796959493929190610480565b604051809103906000f0801580156101c0573d6000803e3d6000fd5b50905060008060009054906101000a90046001600160a01b03166001600160a01b03166323b872dd33848f6040518463ffffffff1660e01b8152600401610228939291906001600160a01b039384168152919092166020820152604081019190915260600190565b6020604051808303816000875af1158015610247573d6000803e3d6000fd5b505050506040513d601f19601f8201168201806040525081019061026b9190610520565b90508061028b576040516312f6b88560e31b815260040160405180910390fd5b60008381526002602052604080822080546001600160a01b0319166001600160a01b038616908117909155905190917f88890f101e05f842f970e80a57886fda0f59e782dfe4c9c65bd7ae6c5b1ce97591a2509b9a5050505050505050505050565b610d6c8061054a83390190565b60006020828403121561030c57600080fd5b5035919050565b80356001600160a01b038116811461032a57600080fd5b919050565b634e487b7160e01b600052604160045260246000fd5b60008060008060008060008060006101208a8c03121561036457600080fd5b61036d8a610313565b985060208a0135975060408a0135965060608a0135955060808a0135945061039760a08b01610313565b93506103a560c08b01610313565b925060e08a013591506101008a013567ffffffffffffffff808211156103ca57600080fd5b818c0191508c601f8301126103de57600080fd5b8135818111156103f0576103f061032f565b604051601f8201601f19908116603f011681019083821181831017156104185761041861032f565b816040528281528f602084870101111561043157600080fd5b8260208601602083013760006020848301015280955050505050509295985092959850929598565b60006001820161047957634e487b7160e01b600052601160045260246000fd5b5060010190565b600061012060018060a01b03808d16845260208c818601528b60408601528a606086015289608086015281891660a086015281881660c08601528660e086015282610100860152855191508183860152600092505b818310156104f4578583018101518584016101400152918201916104d5565b506101409150600082828601015281601f19601f830116850101925050509a9950505050505050505050565b60006020828403121561053257600080fd5b8151801515811461054257600080fd5b939250505056fe60a06040523480156200001157600080fd5b5060405162000d6c38038062000d6c8339810160408190526200003491620000d3565b6001600160a01b038981166080526000899055600288905560018790556003869055600480546001600160a01b0319908116878416179091556005805490911691851691909117905560068290556007620000908282620002a4565b5050505050505050505062000370565b80516001600160a01b0381168114620000b857600080fd5b919050565b634e487b7160e01b600052604160045260246000fd5b60008060008060008060008060006101208a8c031215620000f357600080fd5b620000fe8a620000a0565b985060208a0151975060408a0151965060608a0151955060808a015194506200012a60a08b01620000a0565b93506200013a60c08b01620000a0565b60e08b01516101008c015191945092506001600160401b03808211156200016057600080fd5b818c0191508c601f8301126200017557600080fd5b8151818111156200018a576200018a620000bd565b604051601f8201601f19908116603f01168101908382118183101715620001b557620001b5620000bd565b816040528281528f6020848701011115620001cf57600080fd5b600093505b82841015620001f7576020848601015160208583010152602084019350620001d4565b60006020848301015280955050505050509295985092959850929598565b600181811c908216806200022a57607f821691505b6020821081036200024b57634e487b7160e01b600052602260045260246000fd5b50919050565b601f8211156200029f57600081815260208120601f850160051c810160208610156200027a5750805b601f850160051c820191505b818110156200029b5782815560010162000286565b5050505b505050565b81516001600160401b03811115620002c057620002c0620000bd565b620002d881620002d1845462000215565b8462000251565b602080601f831160018114620003105760008415620002f75750858301515b600019600386901b1c1916600185901b1785556200029b565b600085815260208120601f198616915b82811015620003415788860151825594840194600190910190840162000320565b5085821015620003605787850151600019600388901b60f8161c191681555b5050505050600190811b01905550565b6080516109b6620003b6600039600081816102bd01528181610366015281816104440152818161050f01528181610600015281816106d6015261082401526109b66000f3fe60806040526004361061004a5760003560e01c806324600fc31461004f5780633290ce291461006657806345f085a61461006e578063710075091461008e578063c6ed899014610096575b600080fd5b34801561005b57600080fd5b506100646100b6565b005b61006461026a565b34801561007a57600080fd5b506100646100893660046108bd565b61042c565b6100646105a3565b3480156100a257600080fd5b506100646100b13660046108bd565b6107ff565b60025447908110156100db57604051635fd8526960e11b815260040160405180910390fd5b60085460ff1615156001036101035760405163624a022f60e11b815260040160405180910390fd5b600060646006548361011591906108ec565b61011f9190610909565b9050600061012d828461092b565b6005546040519192506000916001600160a01b039091169084908381818185875af1925050503d806000811461017f576040519150601f19603f3d011682016040523d82523d6000602084013e610184565b606091505b50509050806101a6576040516320afa21360e11b815260040160405180910390fd5b6004546040516000916001600160a01b03169084908381818185875af1925050503d80600081146101f3576040519150601f19603f3d011682016040523d82523d6000602084013e6101f8565b606091505b505090508061021a5760405163cb207dd160e01b815260040160405180910390fd5b6008805460ff1916600117905560405133907feaff4b37086828766ad3268786972c0cd24259d4c87a80f9d3963a3c3d999b0d9061025b9086815260200190565b60405180910390a25050505050565b3460000361028b57604051632c7e767360e11b815260040160405180910390fd5b60006003543461029b91906108ec565b6040516370a0823160e01b815230600482015290915081906001600160a01b037f000000000000000000000000000000000000000000000000000000000000000016906370a0823190602401602060405180830381865afa158015610304573d6000803e3d6000fd5b505050506040513d601f19601f82011682018060405250810190610328919061093e565b1015610347576040516329b2cd9760e11b815260040160405180910390fd5b60405163a9059cbb60e01b8152336004820152602481018290526000907f00000000000000000000000000000000000000000000000000000000000000006001600160a01b03169063a9059cbb906044016020604051808303816000875af11580156103b7573d6000803e3d6000fd5b505050506040513d601f19601f820116820180604052508101906103db9190610957565b9050806103fb576040516312f6b88560e31b815260040160405180910390fd5b604051829033907f8f28852646c20cc973d3a8218f7eefed58c25c909f78f0265af4818c3d4dc27190600090a35050565b6040516370a0823160e01b81523060048201526000907f00000000000000000000000000000000000000000000000000000000000000006001600160a01b0316906370a0823190602401602060405180830381865afa158015610493573d6000803e3d6000fd5b505050506040513d601f19601f820116820180604052508101906104b7919061093e565b9050818110156104da576040516329b2cd9760e11b815260040160405180910390fd5b600480546040516323b872dd60e01b815230928101929092526001600160a01b039081166024830152604482018490526000917f0000000000000000000000000000000000000000000000000000000000000000909116906323b872dd906064016020604051808303816000875af115801561055a573d6000803e3d6000fd5b505050506040513d601f19601f8201168201806040525081019061057e9190610957565b90508061059e576040516312f6b88560e31b815260040160405180910390fd5b505050565b6001544311156105c657604051637318647f60e01b815260040160405180910390fd5b60025447106105e85760405163184953bd60e31b815260040160405180910390fd5b6040516370a0823160e01b81523360048201526000907f00000000000000000000000000000000000000000000000000000000000000006001600160a01b0316906370a0823190602401602060405180830381865afa15801561064f573d6000803e3d6000fd5b505050506040513d601f19601f82011682018060405250810190610673919061093e565b905080600003610696576040516324cf07b960e11b815260040160405180910390fd5b6000600354826106a691906108ec565b6040516323b872dd60e01b8152336004820152306024820152604481018490529091506000906001600160a01b037f000000000000000000000000000000000000000000000000000000000000000016906323b872dd906064016020604051808303816000875af115801561071f573d6000803e3d6000fd5b505050506040513d601f19601f820116820180604052508101906107439190610957565b905080610763576040516312f6b88560e31b815260040160405180910390fd5b604051600090339084908381818185875af1925050503d80600081146107a5576040519150601f19603f3d011682016040523d82523d6000602084013e6107aa565b606091505b50509050806107cc576040516358bb49bb60e01b815260040160405180910390fd5b604051839033907fbb28353e4598c3b9199101a66e0989549b659a59a54d2c27fbb183f1932c8e6d90600090a350505050565b6040516323b872dd60e01b8152336004820152306024820152604481018290526000907f00000000000000000000000000000000000000000000000000000000000000006001600160a01b0316906323b872dd906064016020604051808303816000875af1158015610875573d6000803e3d6000fd5b505050506040513d601f19601f820116820180604052508101906108999190610957565b9050806108b9576040516312f6b88560e31b815260040160405180910390fd5b5050565b6000602082840312156108cf57600080fd5b5035919050565b634e487b7160e01b600052601160045260246000fd5b8082028115828204841417610903576109036108d6565b92915050565b60008261092657634e487b7160e01b600052601260045260246000fd5b500490565b81810381811115610903576109036108d6565b60006020828403121561095057600080fd5b5051919050565b60006020828403121561096957600080fd5b8151801515811461097957600080fd5b939250505056fea26469706673582212206acfa9cb03b952a5c129cc9293101455e736527c2fb2586d3349a09b1aa34b8f64736f6c63430008140033a2646970667358221220849735146355d69e6b961630ea5102d4ce4d70228e5d4ff9e1ed2f0d0f609dde64736f6c63430008140033",
  "devdoc": {
    "author": "Muhammad Zain Nasir",
    "kind": "dev",
    "methods": {
      "deployFundingVault(address,uint256,uint256,uint256,uint256,address,address,uint256,string)": {
        "params": {
          "_blockLimit": "The date (block height) limit until which withdrawal or after which refund is allowed.",
          "_developerFeeAddress": "the address for the developer fee",
          "_developerFeePercentage": "the percentage fee for the developer.",
          "_minFundingAmount": "The minimum amount required to make withdraw of funds possible",
          "_participationToken": "The token that will be used as participation token to incentivise donators",
          "_participationTokenAmount": "Theinitial  participation token amount which will be in fundingVault",
          "_projectURL": "A link or hash containing the project's information (e.g., GitHub repository).",
          "_withdrawlAddress": "The address for withdrawl of funds"
        }
      }
    },
    "title": "FundingVaultFactory",
    "version": 1
  },
  "userdoc": {
    "kind": "user",
    "methods": {},
    "notice": "This is the FundingVaultFactory contract that will be used for deployment and keeping track of all the funding vaults.",
    "version": 1
  },
  "storageLayout": {
    "storage": [
      {
        "astId": 1414,
        "contract": "contracts/FundingVaultFactory.sol:FundingVaultFactory",
        "label": "participationToken",
        "offset": 0,
        "slot": "0",
        "type": "t_contract(IERC20)877"
      },
      {
        "astId": 1416,
        "contract": "contracts/FundingVaultFactory.sol:FundingVaultFactory",
        "label": "s_fundingVaultIdCounter",
        "offset": 0,
        "slot": "1",
        "type": "t_uint256"
      },
      {
        "astId": 1420,
        "contract": "contracts/FundingVaultFactory.sol:FundingVaultFactory",
        "label": "s_fundingVaults",
        "offset": 0,
        "slot": "2",
        "type": "t_mapping(t_uint256,t_address)"
      }
    ],
    "types": {
      "t_address": {
        "encoding": "inplace",
        "label": "address",
        "numberOfBytes": "20"
      },
      "t_contract(IERC20)877": {
        "encoding": "inplace",
        "label": "contract IERC20",
        "numberOfBytes": "20"
      },
      "t_mapping(t_uint256,t_address)": {
        "encoding": "mapping",
        "key": "t_uint256",
        "label": "mapping(uint256 => address)",
        "numberOfBytes": "32",
        "value": "t_address"
      },
      "t_uint256": {
        "encoding": "inplace",
        "label": "uint256",
        "numberOfBytes": "32"
      }
    }
  }
}